:10000000022D550232567B017A037985740BF0E498
:02001000FD22CF
:0F0013000230E790030BEFF0123EE775E8012291
:10002300022DDEBB010689828A83F0225002F72269
:10003300BBFE01F322A3F8E0C5F025F0F0E582153D
:100043008270021583E0C838F0E822BB010A898276
:100053008A83E0F5F0A3E022500687F009E719222E
:10006300BBFE07E3F5F009E3192289828A83E4934F
:10007300F5F074019322BB010A89828A83F0E5F0CB
:10008300A3F0225006F709A7F01922BBFE06F3E5F9
:10009300F009F31922EB9FF5F0EA9E42F0E99D4245
:1000A300F0EC6480C864809845F022EB9FF5F0EA99
:1000B3009E42F0E99D42F0E89C45F022ECF0A3ED6E
:1000C300F0A3EEF0A3EFF0228FE98EEA8DED8CEE34
:1000D300000000000000000000AFE9AEEAADEDACA7
:1000E300EE22E849701C8FE98EEA8DEB8CEC8BEDE8
:1000F3008AEE1201E7AFE9AEEAADEBACECABEDAAE9
:10010300EE228BE98AEA89EB88EC75EF00E8CCF8FC
:100113001201E985EB8285EC8385EFF08FE98EEAA6
:100123008DEB88EC8582ED8583EE000000000000F6
:1001330053F01F7410C395F04420F5EF1201EAEE5B
:10014300CAFEE985E98285EA838582E9F5ED85833F
:10015300EA8CEE1201ECCDCFCBCFC395E9C895EA7B
:100163008582E98FED8583EA8EEE1201ECF992F038
:10017300C3EB95E9FBEA95EAFAE895EBC995ECF848
:1001830072F050151582E582B4FF021583EF2BFB45
:10019300EE3AFAED39F9EC38F8AF82AE83E4FDFCC0
:1001A300228DE98BED8CEA8AEE1201EDADE9ACEA22
:1001B300E5EBE5EC8FE989ED8EEA88EE1201EDE5DA
:1001C300E92DFDE5EA3CFCE5EBE5EC8FE98BED8EF3
:1001D300EA8AEE1201EDAFE9AEEAE5EB2DFDE5ECBF
:1001E3003CFC22000000000000000000000022E7A9
:1001F30009F608DFFA8046E709F208DFFA803E884D
:10020300828C83E709F0A3DFFA8032E309F608DF83
:10021300FA8078E309F208DFFA807088828C83E33E
:1002230009F0A3DFFA806489828A83E0A3F608DFFA
:10023300FA805889828A83E0A3F208DFFA804C802F
:10024300D280FA80C680D4806980F28033801080A7
:10025300A680EA809A80A880DA80E280CA80338907
:10026300828A83ECFAE493A3C8C582C8CCC583CC45
:10027300F0A3C8C582C8CCC583CCDFE9DEE7800D17
:1002830089828A83E493A3F608DFF9ECFAA9F0EDF7
:10029300FB2289828A83ECFAE0A3C8C582C8CCC555
:1002A30083CCF0A3C8C582C8CCC583CCDFEADEE823
:1002B30080DB89828A83E493A3F208DFF980CC8808
:1002C300F0EF60010E4E60C388F0ED2402B4040029
:1002D30050B9F582EB2402B4040050AF23234582C6
:1002E3002390024273BB010689828A83E022500273
:1002F300E722BBFE02E32289828A83E49322BB01C5
:100303000CE58229F582E5833AF583E0225006E97C
:100313002582F8E622BBFE06E92582F8E222E58281
:1003230029F582E5833AF583E49322BB01078982A9
:100333008A8302044C5005E9F8020440BBFE05E938
:10034300F802045889828A83020464A8828583F0B0
:10035300D083D0821203651203651203651203650D
:10036300E473E493A3C583C5F0C583C8C582C8F00D
:10037300A3C583C5F0C583C8C582C822F8E0FBA323
:10038300A3E0F925F0F0E582158270021583E0FA07
:1003930038F022EBF0A3EAF0A3E9F022D083D08275
:1003A300F8E4937012740193700DA3A393F874018E
:1003B30093F5828883E4737402936860EFA3A3A325
:1003C30080DFE860178FE98EEA8DEB8CEC541FF524
:1003D300EF1201E6AFE9AEEAADEBACEC22C5F0F803
:1003E300A3E028F0C5F0F8E582158270021583E0DA
:1003F30038F022BB010DE58229F582E5833AF583C6
:1004030002044C5007E92582F8020440BBFE07E9C9
:100413002582F8020458E58229F582E5833AF583BB
:10042300020464BB010789828A830200BF5005E985
:10043300F8020646BBFE05E9F802065222E6FC086E
:10044300E6FD08E6FE08E6FF22E0FCA3E0FDA3E0EC
:10045300FEA3E0FF22E2FC08E2FD08E2FE08E2FF61
:1004630022E493FC740193FD740293FE740393FFDF
:10047300228A838982E473E3F5F009E208B5F06B1D
:10048300DFF58067E3F5F009E608B5F05EDFF58098
:100493005A87F009E608B5F052DFF6804E87F00977
:1004A300E208B5F046DFF6804288828C8387F00944
:1004B300E0A3B5F036DFF6803288828C8387F009BB
:1004C300E493A3B5F025DFF5802188828C83E3F5DF
:1004D300F009E0A3B5F014DFF5801088828C83E384
:1004E300F5F009E493A3B5F002DFF40205A98087D0
:1004F30080E9809080D4803E8015806E807E809DD0
:1005030080B7808D80A380518074803C0205B589BB
:10051300828A83ECFAE493F5F0A3C8C582C8CCC5FC
:1005230083CCE493A3C8C582C8CCC583CCB5F0768D
:10053300DFE3DEE1807089828A83E493F5F0A3E24E
:1005430008B5F062DFF4805E89828A83E0F5F0A368
:10055300E608B5F051DFF5804D89828A83E0F5F036
:10056300A3E208B5F040DFF5803C89828A83E493F7
:10057300F5F0A3E608B5F02EDFF4802A8002805759
:1005830089828A83ECFAE493F5F0A3C8C582C8CCC8
:10059300C583CCE0A3C8C582C8CCC583CCB5F0065F
:1005A300DFE4DEE280007FFFB5F0020F2240027F2E
:1005B300012289828A83ECFAE0F5F0A3C8C582C8D8
:1005C300CCC583CCE0A3C8C582C8CCC583CCB5F069
:1005D300D5DFE5DEE380CF89828A83ECFAE0F5F0AC
:1005E300A3C8C582C8CCC583CCE493A3C8C582C8BD
:1005F300CCC583CCB5F0AFDFE4DEE280A988F0EFB1
:1006030060010E4E60ABED2402B404005098F582F5
:10061300EB2402B40400508E23234582239004F17B
:1006230073F8BB010DE58229F582E5833AF583E88A
:10063300F0225006E92582C8F622BBFE05E9258291
:10064300C8F222ECF608EDF608EEF608EFF622EC17
:10065300F208EDF208EEF208EFF222020A1FE86454
:1006630080F8E933E83360110460F0ED33EC337064
:1006730009E8FCE9FDEAFEEBFF220460DED3EB9F11
:10068300EA9EE99DE8C2E78CF0C2F795F0400CE8DA
:10069300CCF8E9CDF9EACEFAEBCFFB1209EA85D023
:1006A300F05804700320D5B3E80470075002B2D5A4
:1006B300020A2992D5EC0460F7E4CCC0E0C398F8B1
:1006C300603B94186008400DD0E0FB020A01E4FB94
:1006D300FAC9FC8028E830E406E4C9FBE4CAFCE874
:1006E30030E305E4C9CACBFCE854076010F8C3E95A
:1006F30013F9EA13FAEB13FBEC13FCD8F130F52FE3
:10070300C3E49CFCEF9BFFEE9AFEED99FDD0E0FB6A
:10071300EF4E4D4C701222DB03020A26EC2CFCEF49
:1007230033FFEE33FEED33FDED30E7EB020A01EF6D
:100733002BFFEE3AFEED39FDD0E0FB50130BBB006F
:1007430003020A29ED13FDEE13FEEF13FFEC13FC76
:10075300020A01EC4D6011E8497017ED33EC3304E4
:10076300600DE4FCFFFEFD22E933E8330470F80278
:100773000A1F1209EA58046009E4CC2481500628B0
:100783005009020A29284003020A26C0E0EB4A70F6
:1007930044B98006D0E0FB020A15EF4E701CBD8001
:1007A30008EBFFEAFEE9FD80EBE98DF0A4FEE5F03E
:1007B30002083FE9CDF9EAFEEBFFEF89F0A4FCE57F
:1007C300F0CE89F0A42EFFE435F0CD89F0A42DFE00
:1007D300E435F08067EF4E7005BD80D780C3EF8BA3
:1007E300F0A4ACF0EE8BF0A42CFCE435F0F8EF8A27
:1007F300F0A42CE5F038FCE433CB8DF0A42CFCE51D
:10080300F03BF8EE8AF0A42CFCE5F038F8E433CFA3
:1008130089F0A42CFCE5F038CF3400CE89F0A42F66
:10082300FFE5F03EFEE433C98DF0A42EFEE5F0397A
:10083300CD8AF0A42FFFE5F03EFEE43DFD33D0E08A
:10084300FB50070BBB000F020A29EC2CFCEF33FF14
:10085300EE33FEED33FD020A01020A29EC5D04606A
:1008630005E859047003020A1F1209EA580460F6E6
:10087300EC4860F2EC7004FDFEFF22C860DB2481CB
:10088300C85009C39860025006020A269850CAF558
:1008930082E9294B4A7005AB82020A1575F0007C88
:1008A3001A7880C3EF9BEE9AED99400DC3EF9BFF3F
:1008B300EE9AFEED99FDE842F0DC23ACF0D0E0FFC8
:1008C300D0E0FED0E0FDAB8220E7101BEB60BAEC7A
:1008D3002CFCEF33FFEE33FEED33FD020A01E80398
:1008E300F830E705C0F075F000EF2FFFEE33FEEDB3
:1008F30033FD40B830E7C280AA74F8CC6480CCC81A
:100903006480C8F58204604FC3EB9FF5F0EA9E4212
:10091300F0E99D42F0E89C45F0603C501DE5825FA4
:10092300FFE582D313CB5BCBF42B5582FB50280A14
:10093300BA002409B9002008801DE5825BFBE5822B
:10094300D313CF5FCFF4C3132F5582FF50090EBECD
:1009530000050DBD00010CC3EB9FF5F0EA9E42F0CC
:10096300E99D42F0E89C45F06007CC4820E701B3DD
:10097300EC2275F020800E75F010800575F0087D6F
:10098300007E007F003392D530D503120A34EC3356
:100993004010EF33FFEE33FEED33FDEC33FCD5F0C7
:1009A300ED22E5F0247EA2D513CC92E7CDCEFF2233
:1009B300EDD2E7CD33EC3392D524814006E4FFFE3C
:1009C300FDFC22FCE4CFCECDCC24E0501174FF809B
:1009D300EDC3CC13CCCD13CDCE13CECF13CF047038
:1009E300F030D5DE020A34E9D2E7C933E833F892AE
:1009F300D5EDD2E7CD33EC33FC5002B2D522EC3047
:100A0300E7100FBF000C0EBE00080DBD00040BEB7A
:100A13006014A2D5EB13FCED92E7FD2274FFFCFDFD
:100A2300FEFF22E480F8A2D574FF13FC7D80E480EE
:100A3300EFC3E49FFFE49EFEE49DFDE49CFC227B68
:100A4300007A00795012340B90FC01E4939002DF9A
:100A5300F0E550603814603524FA604B14600424C8
:100A63000670677B017A0279A97FD01234CA123FDC
:100A7300D99002DFE0600690038FE060087BFF7A85
:100A83003479AC803F7BFF7A34798E8037123965B5
:100A9300123FE29002DFE07BFF70067A3479AC808C
:100AA300047A34798E801D123FD99002DFE060060C
:100AB30090038FE060087BFF7A3479BB80067BFF6D
:100AC3007A34799D122B01123D6A90FC08E493FE5F
:100AD300740193FFBEFF05BFFF02800B9002D8EEA7
:100AE300F0A3EFF04E700A9002D87402F0A374588A
:100AF300F090FC05E493FFB4FF12A3E493B4FF0C5E
:100B03009002DA7403F0A374F0F0801490FC06E40E
:100B130093FEEF8EF0A4FF9002DAE5F0F0A3EFF07E
:100B230090FC03E493FF9002DEB4FF057401F080B0
:100B330002EFF090FC02E493FFB4FF0C9002DC742C
:100B430001F0A374C2F0800FEF75F00AA4FF9002C6
:100B5300DCE5F0F0A3EFF0E550601F14601C1460B7
:100B63001C24FB7003020D30146003020DB29002CB
:100B7300A9E07003123B3B020D09020D2A9002A962
:100B8300E070047F0180027F009002E0EFF090FCB0
:100B930005E493FF90038DE0B5070D90FC06E49305
:100BA300FF90038EE06F601990FC05E49390038D32
:100BB300F090FC06E49390038EF0E4900389F0A395
:100BC300F0900385E06003020D2290038AE004F0B5
:100BD3007006900389E004F07B017A0279AA123748
:100BE3002C9002AAE0FF900386F09002DFE07006EB
:100BF3009002DEE060409002DEE0FEEFD39E5027DD
:100C0300E4900385F0FD7FC91236369002DFE0B42D
:100C1300010D90038F7401F07A3479AC120DD61262
:100C23002801122710800F90038FE06009E4F07A07
:100C330034798E120DD690038DE06019A3E0601510
:100C43009002DAE0FEA3E0FFC390038AE09F9003E3
:100C530089E09E50099002E0E07003020D11120D2D
:100C6300DFE4900389F0A3F09002E474FFF0A3742F
:100C730034F0A3746BF0900387E0FFA3E09002E7E6
:100C8300CFF0A3EFF09002DCE0FFA3E09002E9CF06
:100C9300F0A3EFF07B017A0279B0120E4C9002AF11
:100CA300EFF07F64120DCC7F03123E427F011200EE
:100CB30016123FEB7B017A0279B09002AFE0FD128E
:100CC3003859EF640960ED7B017A0279AF123E5A1D
:100CD3009002AFE0D3940050EE7F5A120DCC120D68
:100CE300C41227CA90038712280CE4A3F0A3740F3D
:100CF300F09002A8740A12282C12163C90038774F1
:100D030003F0A374E8F07D02E4FFFE020DAF120DC1
:100D1300DF9003857401F0FD7F037E00020DAF12A7
:100D23000DC4E4900385F0122801020DAF7D017F0D
:100D3300C91236367B017A0279AB123D877B017A81
:100D43000279AD12247DE4FD7FC912363690038704
:100D5300E0FEA3E0FF9002ADE0FCA3E0FDC39FEC47
:100D63009E500CED4C6008900387ECF0A3EDF0125D
:100D730027CAD3ED94F6EC94094006A374FFF080E0
:100D8300069002AD12280C9002ABE0FEA3E0FF1226
:100D93003338900283EFF0A3740AF09002A812286C
:100DA3002C12163CE4900385F01228011227107FC1
:100DB30012123BCB7F2C7E017D007C00121BEB804B
:100DC300EEE4FD7FC9123636227E007D007C0012E0
:100DD3001BEB227BFF122B01123D6A227D017FC98F
:100DE30012363622E55124E4F582E43402F583E039
:100DF3000551229002E13007039002E4E475F0010B
:100E030012037F0202E82000E97F2ED2008018EF50
:100E1300540F2490D43440D4FF30040BEF24BFB4D8
:100E23001A0050032461FFE552600215520555E58F
:100E3300557002055430070E9002E1E475F001127B
:100E4300037FEF020026023C707403D2078003E4A1
:100E5300C207F5519002E1120396E4F552F554F5F9
:100E630055E55260077F20120E2A80F57553FFC2A5
:100E730001C200C202C203C205C206C208120DF6B5
:100E8300FF700D3007057F00120E3BAF55AE5422A5
:100E9300B4255FC2D5C204120DF6FF24D0B40A00F4
:100EA300501A75F00A785230D50508B6FF0106C608
:100EB300A426F620D5047002D20380D924CFB41A15
:100EC30000EF5004C2E5D20402103CD20180C6D226
:100ED3000080C0D20280BCD2D580BAD20580B47F54
:100EE30020120E2A2002077401B5520040F1120DA0
:100EF300E7FF120E2A020E64D208D2068095120D65
:100F0300E7FB120DE7FA120DE7F94A4B7006790D6C
:100F13007A117BFF20022EE552602A7E008E8275B5
:100F2300830012030160060EEE655370F0C2D5EB29
:100F3300C0E0EAC0E0E9C0E0EE121083D0E0F9D0EF
:100F4300E0FAD0E0FB1202E8FF60AAEBC0E0EAC0DF
:100F5300E0E9C0E0120E2AD0E02401F9D0E0340029
:100F6300FAD0E0FBE5530460DCD553D980877BFFDF
:100F73007A10797FD202809C791080027908C206A8
:100F8300C2088008D2D5790A8004790AC2D5E5530C
:100F9300047002F553E4FAFDFEFF120DE7FC7B0833
:100FA300200113120DE7FD7B1030000A120DE7FE3E
:100FB300120DE7FF7B20EC3382D592D55013C3E4A7
:100FC3003000069FFFE49EFEE42001039DFDE49CA8
:100FD300FCE4CBF8C201EC700CCFCECDCCE824F806
:100FE300F870F38017C3EF33FFEE33FEED33FDEC00
:100FF30033FCEB33FB994002FB0FD8E9EB300105DF
:10100300F8D0E0C448B201C0E00AEC4D4E4F78205E
:101013007B0070C2EAB5530040BCC0E0121085D01B
:10102300F0D0E0200104C4C0E0C4B201C0F0120E4D
:1010330013D0F0D5F0EB020E6412039F0F01530F90
:101043007B580ED24C0ECE420F7F4F0F87440F8733
:10105300490EE7430F8D550F71460F71450F7147C9
:10106300112D500ED62D0EDA2E0EFD2B0EDE230E75
:10107300FB2011162A0E964800000EF53F3F3F0055
:10108300790AA2D5200314300509B910020404B962
:10109300080104A2D520060250010420026892022E
:1010A300B552005034C0E07F203003197F30A202D4
:1010B30072067205500F1210DCC202C206C205C2CC
:1010C300087F30800F300503E9C0E0120E2A300597
:1010D30003D0E0F9D0E0B552CC3005177F30B9101A
:1010E3000C120E2A7F583004077F788003B9080357
:1010F300120E2A3002057F2D020E2A7F202008F8C7
:101103007F2B2006F322920280CF286E756C6C2908
:1011130000D201120DE73001F8C201785230D50137
:1011230008F6020E962D50434958120DE72403B4D6
:1011330005004001E490112893120E1B743A120E1D
:101143001BD203755204020F7B900366EBF0A3EAF4
:10115300F0A3E9F0FF90036CEAF0A3123058FF907C
:10116300036EEAF0A3EFF0900366123032F99000B9
:101173002C120301FF900370F0E4900373F09003CB
:10118300757480F0E4A3F0EF6405705212302FF908
:1011930074A7120026900366123032F990000412ED
:1011A300030112302EF9900001EF12062412302FA2
:1011B3002402F9E43AC8E9C8FCCDEBCD90036612EA
:1011C3003032F97E007F041202C212302FF99000F0
:1011D30006740F12062490002C740802140E900358
:1011E30070E0FFC394074006EFD3941540037F08D4
:1011F3002290036C122FF1E0FB54E0C4135407FF59
:101203007403C39F50037F0822EF903C60939003C5
:1012130071F0EF903C6893900372F0E0600C122F32
:10122300EE74A6F09003767401F0EB30E4047F01D2
:1012330080027F00C9EFC9EB540FFFBF0F047F018A
:1012430080027F00EF700BEB540F903C48122FECA1
:10125300EEF0E9601E90036C122FF1E0FB90037532
:10126300E0FEEB54F0C4540FFDEE4DF0EB540F9041
:101273000373F0900373E060037F0822EF601D9017
:10128300036C122FF1E0FBD394074007122FEEEB10
:10129300F08009EB903C58122FECEEF0EFFDE92DB6
:1012A300FDE433FC900371E07A002DFDEA3CFCA3DE
:1012B300E0FE2DFDEA3CFCA3E02DFDEA3CFCED2421
:1012C30002FDE43CFC900370E0C39DEC6480F87481
:1012D300809850037F0822900370E0C399C39FFF57
:1012E300A3E0FDC3EF9DC39EFF900373E0FDC3EF37
:1012F3009D24FEFFA3F0900376E0FDEF2DFDE43384
:10130300FCEEFB7A002DFFEA3CFED3EF940EEE6475
:1013130080948040037F0822900374E02BFFE43A1B
:1013230012304A900371E0FF600912301490037188
:1013330012303A900372E06009122FFE900372128A
:10134300303A900374E0122FFE900372E0FF900393
:1013530074E02FFFE433FE900371E07C002FFFEC79
:101363003E12304A900375E0FF90036EE0FCA3E069
:10137300F5828C83123058CEEACEFF90036EEEF0E6
:10138300A3EFF0F5828E83E0B4A60E90036FE00422
:10139300F0700690036EE004F0122FEEE064F67036
:1013A3004A90036EE0FEA3E0FFCAEECAF97B01EBAD
:1013B300C0E0EAC0E0E9C0E0900374E0FD7C00EF28
:1013C3002DFF900372123063900371123063EC3E71
:1013D300FAC9EFC99003A5EBF0A3EAF0A3E9F0D0B3
:1013E300E0F9D0E0FAD0E0FB1229C0900374E0FFEB
:1013F300900376E02FFF900372E02FFF900371E0DC
:101403002F240312302EF990002CEF1206247F00B4
:1014130022900315EBF0A3EAF0A3E9F0756AFF75D8
:101423006B03123AA8F9900015120301F56CC394EB
:10143300074007E56CD3941540037F0B2212380F46
:101443008F6AE56AB4FF037F0922900318123AAB4F
:10145300F94A70030215111202E8F56BD394035095
:1014630036E56B70028030123AC8E4FBFAF9F8C330
:101473001200AE7003021511900318123AAB123A20
:10148300C774FFFBFAF9F8C31200AE70030215111B
:10149300E56CD394104008123A95E4F07F0B229048
:1014A300031B74A6F0E56C24FAFFE434FFFE781CFA
:1014B3007C03123AA6F91202C2900318123AAB1235
:1014C3003AC77416256CF582E43403F5831200BF22
:1014D300123AA87E00256CF9EE3AFAE924FAF9EA01
:1014E30034FFFAC001741A256CF9E43403A801FC33
:1014F3007D01D0017F061202C27405256CF56C24B0
:1015030019F582E43403F583E04480F0800FAF6C77
:101513007E00781B7C03123AA6F91202C2741525C9
:101523006CF582E43403F583E0FCA3E0FDA3E0FE65
:10153300A3E0F5708E6F8D6E8C6DE4FFFE7D807C75
:10154300FF123ABB50107415256CF9E43403FA7B8F
:1015530001123F73803E7B007A007966123778E58B
:10156300695480FBE568FAE567F9E566F8E57054C8
:1015730080FFE56FFEE56EFDE56DFCC31200AE7006
:101583000B74FFFFFEFDFC123ABB7008123A95E4A0
:10159300F07F1022900347E56CF0E56A75F038A4FC
:1015A300244CF9740035F0FA90037A7401F0A3EA3D
:1015B300F0A3E9F07B017A03791B12185D123AB4A8
:1015C300247DF582E5F03400F583E4F0A3E56B12A6
:1015D3003AB3247BF582E5F03400F583E4F0A312FB
:1015E3003AB32481F582E5F03400F583E4F0123A4E
:1015F300B42480F582E5F03400F583E4F074192512
:101603006CF582E43403F583E0540FFF123AB424FB
:1016130079F582E5F03400F583EFF0123A95E04472
:1016230080F0201011123AB4244CF582E5F0340016
:10163300AF82FE122CC77F00229002E1EBF0A3EAF7
:10164300F0A3E9F07559FF755A03122E70F9900053
:101653002C120301F55B1202E820E40AE55BD39444
:101663002B40037F0B22E55BD3942C5004E55B7086
:10167300037F0B229002E4122E73F94A60111202C7
:10168300E8F55AD394035004E55A70037F0B2212F2
:10169300380F8F59E559B4FF037F0922122E6912BF
:1016A3002EC9E55BF0FF7E00C006C007122E96121E
:1016B3002E70F9D007D0061202C2E55BD394065010
:1016C3000302177D122ED4122E69122EB4AF82FE9E
:1016D3007C027DE9122C369002EAEBF0A3EAF0A338
:1016E300E9F04A700B122E69122EA9E4F07F08224A
:1016F3009002EA122E73F912032E8F588E578D56CD
:101703008C55E4FFFE7D807CFF122EBD4048900285
:10171300E9E064047040FB7A007951123778E554AC
:101723005480FBE553FAE552F9E551F8E558548046
:10173300FFE557FEE556FDE555FCC31200AE700B01
:1017430074FFFFFEFDFC122EBD706F122E69122E68
:10175300A9E4F07F10229002E9E0FFFD7C00C004C1
:10176300C005122E7BC003C0029002EA122E73F84A
:10177300AC02AD03D002D0038039122ED478E97CB9
:10178300027D017BFF7A4079037E007F071202C24C
:1017930074E9255BF582E43402F583E09002F0F00E
:1017A300E0FFFD7C00C004C005122E7BC001122E99
:1017B30096D001D007D0061202C29002E4122E7313
:1017C300F91202E8FF122E69247DF582E5F0340058
:1017D300F583E4F0A3EFF0122E69247BF582E5F0A4
:1017E3003400F583E4F0A3F0122E692481F582E539
:1017F300F03400122E652480F582E5F03400122EB9
:1018030065122EC9E0D39406402C122E69122EB411
:10181300F583E030E414122E69244DF582E5F034AB
:1018230000F583E0C4540FFF80027F00122E69127B
:101833002EDFEFF08008122E69122EDFE4F0122E55
:1018430069122EA9E04480F020100C122E69122E8A
:10185300B4AF82FE122CC77F0022900377EB1239BC
:101863001590037D7406F0C211C212E4FF90037A4F
:10187300E0F9A3E0FAA3E090037E12391490037712
:10188300E0F9A3E0FAA3E0900381123914900377FF
:10189300E0FBA3A3E0F990002C120301900384F072
:1018A3007C0024FEF582EC34FFF583120301FE1263
:1018B30039081202E8FD64A7703A757C02123908F0
:1018C30012391DFC1238F7EC120026057CE57CB4B6
:1018D30006EB123908900001120301FF90037E12F8
:1018E300390BEF12002690037A12390B90002C74F7
:1018F30005021A24EDB4A618EF4440FFD211900359
:1019030082E475F0011203E0900384E014F0800494
:10191300EF4420FFE4F57C1239081202E8FDE57C70
:10192300903FCE936D700CE57C7002D212E57C4F34
:10193300FF8007057CE57CB40BDDE57CB40B04EF8D
:10194300440FFFEE540F6011EF44101238F6EF12FC
:101953000026EE540FC454F0FF1238F7EF1200269E
:10196300E57CB40B0D1239081202E81238F6EF12B7
:101973000026900384E024FAF57C900384E0FF249E
:10198300FEFDE57CC39D501212390812391DFD126C
:1019930038F7ED120026057C80E0301124EF24F6A1
:1019A300F57C900384E024FAFFE57CC39F500B127F
:1019B30038E2EF120026057C80E890037DE02404E2
:1019C300F0301215123908CFEECFCDEFCD123ACE4B
:1019D3001238F7EF120026802D900384E0FF900366
:1019E3007DE0C39F5020757C0190037DE0FF900351
:1019F30084E0C39FFFE57CC39F500B1238E2EF12D4
:101A03000026057C80E390037AA3A3E0FF90037E86
:101A1300A3A3E0C39F04FF90037A12390B90002C19
:101A2300EF1206247F002290030E74FFF07F01EF74
:101A3300C395725013EF123A5AE054417007900362
:101A43000EEFF080030F80E790030EE0FEB4FF0378
:101A53007F0922E4F5B685B563E563D3942D50047D
:101A6300E56370037F0622E4FFEE123A69AD82FC60
:101A73008D828C83E5B5F00DEDAA1470010C14F57D
:101A830082E06F90237D93FFE5B6C3956340E18DBC
:101A9300828C83E5B5F0E563D394064007E06F607D
:101AA300037F06227F3C7E12123F281239E0900307
:101AB3000EE0FE75F038A4247AF582E5F03400F5E3
:101AC30083EFF0EE123A86E563F0123A597401F0AF
:101AD300201007123A59E04420F0E57430E1629097
:101AE300030EE075F038A4244CF9740035F0FA7B4A
:101AF30001122F6B8F62E563D394064026E562647F
:101B0300C6601290030EE0123A69F583E0C41354E1
:101B130007FFBF020E90030EE0123A5AE0440AF0A8
:101B2300437102E562B4A719788BE6B4FF0790030B
:101B33000EE0F6800C90030EE0123A5AE4F07F06B2
:101B43002290030EE0FF75F038A4247BF582E5F0C4
:101B53003400F583E4F0A304F075F038EFA4247D9A
:101B6300F582E5F03400F583E4F0A3F075F038EF87
:101B7300A42480F582E5F03400F583E4F075F038B1
:101B8300EFA42481F582E5F03400F583E4F0AE7927
:101B9300AF7A90030EE0FD75F038A42482F582E558
:101BA300F03400F583EEF0A3EFF0ED123A86E0D3C4
:101BB30094064029ED123A69F583E030E41675F096
:101BC30038EDA4244DF582E5F03400F583E0C454E8
:101BD3000FFF80027F00123A76EFF08005123A760B
:101BE300E4F04371207F00229002E11200BF301025
:101BF30043539AF7AF7AAE79AD78AC779002E5129A
:101C030000BF439A08539AF79002E5123B11C3E5CC
:101C13007A9BFFE5799AFEE57899FDE57798FCA331
:101C23001200BF439A08123B1DFF123B0EC3120062
:101C3300AE40D222E4FFFEFDFC9002E1123B11D341
:101C43001200AE5003021D60E47F41FEFDFC9002D2
:101C5300E1E0F8A3A3A3E01200AE40189002E9125A
:101C6300034E00000041123B1DC394419002E11258
:101C73003B2B8014123B1DFF9002E91200BF900220
:101C8300E112034E00000000E4FD7F0C7E06123FCC
:101C930095E5DC20E008E5DC54FE4401F5DC7FFF3C
:101CA3007EFF123B0BD31200AE402D123B07D31223
:101CB30000AEE440187B0AFAF9F89002E9123B20DF
:101CC300FF1200E5E47BE87A03F9F880067F64FEFF
:101CD300123B0C1201A4800F123B071201A4E47BF8
:101CE3000AFAF9F81200E59002E91200BF9002E93E
:101CF300123B20C394509002E9123B2B9002E9A3BC
:101D0300A3E0FEA3E0FDAC067F087E06123F4F7FF3
:101D1300107E06123F61EF20E0F57F0C7E06123F36
:101D230061EF4401FD7F0C7E06123F9575DDFF7563
:101D3300D4FF43DC045375F75375EFC213C214C2C7
:101D43000F9002EDE5ADF043AD01A3E5A8F043A884
:101D530001A2AF9200D2AF438702021C377F021267
:101D63003B6E9002EEE0F5A89002EDE0F5AD75DD77
:101D73000153DCFBA20092AF229002F3EEF0A3EF3B
:101D8300F0E4A3F0A304F0123C0FFF242C123C0751
:101D9300F55DD3940640047C0180027C008C5E8E4A
:101DA3005F8F60E49002F7F0EDD394004009123D99
:101DB300F6EF60037F0022E57530E10E53DEFBE5AD
:101DC300D420E7FB53DEF775A4FFE4F5B675B4AA98
:101DD30075B4AA75B4A975B43C123C0FFF123C0547
:101DE300FD60178F828E83E020E40FE55DD39406B8
:101DF30040089002F77401F0055D855DB4123C174D
:101E0300FF0560E5607002055F9002F7E06004EF94
:101E13004410FF123BF5ED6047E55DD39406404067
:101E23009002F3E0FCA3E0FDF5828C83E020E41252
:101E3300E582242DF582E43583F583E0C454F0FF75
:101E43008019123C0F123C05C454F0FF123C175486
:101E53000F4FFF0560E5607002055F123BF5801FC1
:101E6300C3E55D955EFF9002F6E0C39F5017123CF9
:101E730017FFF5B4123BF70560E5607002055FA339
:101E8300E004F080DBE55EB401069002F5E0F5B412
:101E93007408FFFE123F28E55D2405FDE4334EFC84
:101EA3007408FFFE123F4F43DC804375047F021228
:101EB300001690FE06E0F59FA3E0F59E43DE204367
:101EC300DE107F012290039AEEF0A3EFF0A312033A
:101ED3004E00000000E49003C1F0A3F0A3F0D2177A
:101EE3009003A0E5D3F075D30353D9FEE4F5A2F52F
:101EF300979002F512034E00000190E49002F9F06E
:101F03007F0112256BE49003A1F09003A1E0700D13
:101F13007B017A0379A17F0112286B80ED122008DF
:101F230020E0FA7FFF7EFF7DFF7C00123F1312202B
:101F33000820E5FA7F0112306A7F107E04123F61A8
:101F4300EF20E0F575F5FF75F4FFE5DA549F4420C3
:101F5300F5DA43DA8075FB0243C102439A0875DD63
:101F6300027F01123FC343AD02A2AFE433FFD2AFFE
:101F73009003C3E0B402F9A2AFE433C2AFE4FF12AB
:101F83003FC353DDFD539AF753C1FD53DCFD90036B
:101F9300C1E0FEA3E0FFE4FCFD7BFF7AFFF9F8124A
:101FA30001A4A804A905AA06AB07AFA2EFFEAD974B
:101FB300EDFFE4FCFDEB2FFFEA3EFEED39FDEC38CF
:101FC300FC90039C1200BF90039CE0FCA3E0FDA3E4
:101FD300E0FEA3E0FFE4120975A804A905AA06AB75
:101FE300077F017E507DC37C4A12085F90039AE00D
:101FF300FAA3E0F5828A831200BFC2179003A0E020
:10200300F5D37F00227F0C7E04123F61EF22E4F5BB
:102013009DF5AE75CB28F58F75BB01EF12039F209D
:102023004A0B20520C205A0E206212206A1A207288
:102033008A207A8B20828C208A8D20928E209A8F00
:1020430020A290000020AA538DF075BB15805B532E
:102053008DF075BB118053538DF075BB0D804B53C1
:102063008DF075BB098043538DF075BB05803B53E1
:102073008DF075BB038033538DF0438D098023535B
:102083008DF0438D01801B538DF0438D05801353D9
:102093008DF0438D0D800B538DF0438D03800343EF
:1020A3008D0F75BB0180037F0B22ED12039F20D997
:1020B3000B20E10C20E90E20F11220F91A21018AEC
:1020C30021098B21118C21198D21218E21298F2109
:1020D300319000002139538D0F758F14805B538D20
:1020E3000F758F108053538D0F758F0C804B538D4D
:1020F3000F758F088043538D0F758F04803B538D6D
:102103000F758F028033538D0F438D908023538D32
:102113000F438D10801B538D0F438D508013538DB0
:102123000F438DD0800B538D0F438D308003438D30
:10213300F0E4F58F80037F0B227FFADFFE7F00221E
:102143009003B1ECF0A3EDF09003AFEEF0A3EFF04A
:10215300F5828E83E030E4047F0180027F009003E8
:10216300B3EFF09003B1E0FEA3E0FFF5828E83E0CE
:1021730030E4047D0180027D009003B4EDF0900310
:10218300AFE0FCA3E0123C2AFDD394064009EF1212
:102193003C34D3940650399003B1E0FAA3E0FB1228
:1021A3003C206D60037F00229003AFE0FEA3E012AA
:1021B3003C34FF7E00C9EBC97B019003AFE0FCA375
:1021C300E0F87D01120600EF70037F01227F0022F9
:1021D3009003B1E0FCA3E0FDF5828C83E054EFFFB4
:1021E3009003AFE0FAA3E0FBF5828A83E054EF6F3C
:1021F30060037F0022ED123C2AFF9003B4E0FEC38C
:10220300EF9EFF123C1FFD9003B3E0FCC3ED9C6FF8
:1022130060037F0022EDFBECFDC3EB9DFDE4940026
:10222300FCED24FEFDEC34FFFCECC0E0EDC0E0EE81
:102233009003B2123C3E9003B1E03EFAC9EFC97B72
:10224300019003B3E09003B0123C3E9003AFE03E35
:10225300C8EFC8FC7D01D0E0FFD0E0FE120600EF1E
:1022630070047F0180027F00229002EDEEF0A3EF65
:10227300F09002F1EBF0700302237CE0FFD3940CA7
:10228300400302237C9002EDE0FAA3E0FBC3EA647F
:10229300809480500BC3E49BFBE49A9002F9800B7B
:1022A3009002EDE0FBA3E09002F9CBF0A3EBF0C3C7
:1022B300EC64809480500BC3E49DFDE49C9002FB8E
:1022C30080049002FBECF0A3EDF0EF6408701B9028
:1022D30002F9A3E0D3948040069002F9E004F012DF
:1022E3003DEB9002F9123DDF80439002F1E0FDC324
:1022F3009408503E9002F9A3E0948040069002F9BE
:10230300E004F0123DEBC374089DFFA3E0FEA3E0DD
:10231300A807088005CEC313CE13D8F9FF9002FB9C
:10232300EEF0A3EFF09002F9E0FCA3E0FD1200CB86
:1023330080369002FBE0FEA3E0FFE4FCFD9002F593
:102343001200BF123DDC9002F1E0F9F81203C590D0
:1023530002F51200BF9002F9E0FEA3E0FBAA06E437
:10236300F9F8123DDC1200E59002F2E0FBA3E0FA7B
:10237300A3E0F9EE8FF01200792200070E091C1B6F
:102383001215383F363124232A2D70777E796C6BF2
:102393006265484F464154535A5DE0E7EEE9FCFB62
:1023A300F2F5D8DFD6D1C4C3CACD90979E998C8B52
:1023B3008285A8AFA6A1B4B3BABDC7C0C9CEDBDCC2
:1023C300D5D2FFF8F1F6E3E4EDEAB7B0B9BEABACB2
:1023D300A5A28F88818693949D9A2720292E3B3C22
:1023E30035321F18111603040D0A5750595E4B4C12
:1023F30045426F68616673747D7A898E8780959292
:102403009B9CB1B6BFB8ADAAA3A4F9FEF7F0E5E271
:10241300EBECC1C6CFC8DDDAD3D4696E67607572E1
:102423007B7C51565F584D4A4344191E17100502D1
:102433000B0C21262F283D3A33344E494047525541
:102443005C5B7671787F6A6D64633E393037222531
:102453002C2B0601080F1A1D1413AEA9A0A7B2B5A1
:10246300BCBB9691989F8A8D8483DED9D0D7C2C591
:10247300CCCBE6E1E8EFFAFDF4F39002E11227E2B8
:10248300E49002F0F0A3F0A3F0F5F0120079E490E9
:1024930002E4F09002E4E014602224FA502A606C13
:1024A30024077074122560706F9002E51227EBEF1A
:1024B300645A70649002E404F002251B12256070D4
:1024C300579002E47402803D7B017A0279E5123968
:1024D30026EF70449002E11227C112004EAEF07550
:1024E300E90AF5ED75EA00122861E5EC9002E5E0F2
:1024F30024D0FDE434FFCD2FFFED3E8FF0120079A1
:102503009002E4E004F0A31227EB800C9002F07435
:10251300C3F0A37451F0800C9002F2E0C3940A401C
:10252300037409F09002F0E475F001120038AFF083
:10253300FEE4FCFD7B507AC3F9F8C3120098400314
:102543000224969002F0122840F8C3120098700CEF
:102553009002E11227C1E4F5F0120079227B017A9F
:102563000279E5123926EF22EF14603614607124E4
:1025730002600302264A7F087E05123F61EF20E0D6
:10258300F5123FB524FFFFEE34FFFEED34FFFDEC03
:1025930034FFFC7B017A057904123ED143D408024F
:1025A300264DE5DC20E108E5DC54FD4402F5DC7F43
:1025B300107E04123F61EF20E0F57D017F107E0461
:1025C300123F957F0C7E04123F61EF20E0F5123F2E
:1025D300B5FF7B017A047908123ED175DD02806A6A
:1025E300E4FD7F0C7E06123F95E5DC20E008E5DC88
:1025F30054FE4401F5DC9002F5A3A3E0FEA3E0FD45
:10260300AC067F087E06123F4F7F107E06123F61A5
:10261300EF20E0F575DD019002F9E07F0C7E06B452
:102623000108123F61EF44038008123F61EF54FD3C
:102633004401FD7F0C7E06123F957F107E06123FFC
:1026430061EF30E20580F37F0B227F0022EF60729F
:10265300E57520E2FBE57530E10E53DEFBE5D420A2
:10266300E7FB53DEF775A4FF1232C990180874060E
:10267300F07D047F007E0A123F957D047F007E0B70
:10268300123F957D037F007E11123F9575D2317500
:10269300DE0875DC8079047C0012270279087C80CF
:1026A3001227027D017F0C7E02123F957D017F0080
:1026B3007E02123F957B017A03795B7D8C7F8C02CE
:1026C30039A3123162E490035BF0A3F0F58D758FAB
:1026D3004075BB4075CB81759D81F5AEE57520E1F5
:1026E3000353DC7FE57530E115E4FF12001690FE1D
:1026F30004E0F59FA3E0F59E43DE0843DE04227B5E
:10270300017A027F007E007D00123ED1229002E317
:10271300EDF09002E1EEF0A3EFF04E607C12283D65
:102723007B407A42790FF8C31200AE501912283D4C
:102733007B107A27F9F81200E57B407A42790F780B
:10274300001201A480199002E1E0FEA3E0FF7C00E7
:102753007D648DE9F5ED8CEA122861ADEBACECAB51
:1027630007AA06A905A80490FE0EE0FEA3E0FFE475
:10277300FCFD1201A4E4FB7A08F9F81200E59002CB
:10278300E41200BF9002E41228559002F51200BF34
:10279300E49002F9F0FF12256B123FE27B017A020B
:1027A30079E8E4FF12286B9002E8E060EF9002E31F
:1027B300E0FF7B007A0079000229189002E1E0FB38
:1027C300A3E0FAA3E0F92290027C7422F0E4A3F0E0
:1027D300A3F0A3F0A3F0900386E0900281F022EB34
:1027E300F0A3EAF0A3E9F022E0FF9002F2E0FE0496
:1027F300F074E62EF582E43402F583EFF0229002C2
:10280300D8E0FEA3E0FF7D0222E0FEA3E0FF7C0010
:102813007D0A1200CB900282EFF0229002E1E0F8F1
:10282300A3E0F9A3E0FAA3E022F09002E4E4F0A32A
:10283300F0A3F07B017A02797C229002E1E0FEA30F
:10284300E0FFE4FCFD22E0F8A3E0F9A3E0FAA3E053
:10285300FB22E0FCA3E0FDA3E0FEA3E0FF228EEE5B
:102863001201EDAFE9AEEA229003B9EFF09003BA9B
:10287300EBF0A3EAF0A3E9F09003BAE0FBA3E0FADC
:10288300A3E0F9E41200269003B9E0FFEF12039FDF
:1028930028F50028A00128D00200002912E5D6302F
:1028A300E1707F107E04123F61EF20E0657F0C7EB4
:1028B30004123F61EF5403FFEF70579003BAE0FB3C
:1028C300A3E0FAA3E0F974011200268045E5D630AF
:1028D300E2407F107E06123F61EF5407FFEF703234
:1028E3009003BAE0FBA3E0FAA3E0F9740112002617
:1028F30080207F087E05123F61EF20E0159003BA28
:10290300E0FBA3E0FAA3E0F9740112002680037F41
:102913000B227F00227889A6ADEF30E00843DC0864
:1029230043AD04800353DCF7EF30E10843DC10438D
:10293300AD08800353DCEFE5DC30E00343AD015326
:10294300DEFB85A55F85A76085C161E4F5A5F5A7D5
:10295300F5C175D4FF75DDFEC299C29853DCFB78CF
:102963008AA6A843A801A2AF9200D2AF438702A2CE
:102973000092AFE6F5A818E6F5AD8561C18560A7BD
:10298300855FA5300A0CEA494B6004E4120026C2B5
:102993000A22300B0DEA494B60057401120026C26E
:1029A3000B2230090DEA494B60057402120026C25E
:1029B3000922EA494B60057408120026229003A2FB
:1029C300EBF0A3EAF0A3E9F01202E8FF9003A8F00A
:1029D300E41200269003A5123F8A54BF12002690EA
:1029E30003A5123F8A4420120026EF30E708123F66
:1029F300874410120026E4FFFE9003A8E020E002C3
:102A0300802E0FEFB401139003A5123F8A441012D6
:102A13003F84FDEE903EA293800EEFB4020E123F70
:102A230087FDEE903EAA93044D1200269003A8E082
:102A3300C313F00EEE640770C0EF6401601FEF6410
:102A430002601A9003A5123F8A54EF123F84541078
:102A5300123F84FEEF903EB2934E12002622C0D066
:102A630075D01090030BE5A4F0E0FFF5A4EF30E47C
:102A730050E4F5B690030D742FF0E5B3C394015001
:102A83000A90030DE0FF14F0EF70EF90030CE5B52F
:102A9300F0E0D3942D4003742DF090030CE0FFE598
:102AA300B3D39F400BAFB3EF2403FDE433FC800AA1
:102AB30090030CE02401FDE433FC7F007E09123F08
:102AC3004F90030BE030E633437508E4F5B67D2001
:102AD300FCFF7E09123F4F301005121A2A801C1288
:102AE3001A2AEF7016E57520E20353DC7F53DEFBF1
:102AF300E5D420E7FB53DEF775A4FFD0D022900086
:102B03000C1203017886F690000D1203017887F604
:102B130090000E1203017888F67886E6F58008E6C1
:102B2300F590900001120301F5A390000312030135
:102B3300F5A1900002120301F5BD900004120301F8
:102B4300FFF5BE900005120301F59B9000061203EA
:102B530001F5AB900008120301F5AF9000091203D1
:102B630001F589900007120301F5CC90000A1203C6
:102B730001FEF5D37888E6F5B090000B120301F55A
:102B8300D11202E8F5CF8ED3E4FCFDFE7B017A037C
:102B93007904123ED1E49003B8F0229003BDECF027
:102BA300A3EDF0CBEFCBCAEECA8B828A83E0FD5450
:102BB300E0FFC4135407FCEB2401FEE43A9003BF87
:102BC300F0A3CEF0EB242CF582E43AF583E0D39422
:102BD300065009CFEBCFC9EFC97B01227403C39C15
:102BE30050077B007A00790022ED30E40E9003C099
:102BF300E004F070069003BFE004F0ED540FFFBF54
:102C03000F0E9003C0E004F070069003BFE004F0E1
:102C13009003BDE0FEA3E0FF4E600AEC903C60939E
:102C23008F828E83F09003BFE0FEA3E0CAEECAF961
:102C33007B01229002F1ECF0A3EDF0CBEFCBCAEED7
:102C4300CA8B828A83E0FD54E0FFC4135407FCEB74
:102C53002401FEE43A9002F3F0A3CEF0123C1FD31A
:102C630094065009CFEBCFC9EFC97B01227403C38C
:102C73009C50077B007A00790022ED30E40E90022D
:102C8300F4E004F070069002F3E004F0ED540FFF5B
:102C9300BF0F0E9002F4E004F070069002F3E0041C
:102CA300F09002F1E0FEA3E0FF4E600AEC903C607E
:102CB300938F828E83F09002F3E0FEA3E0CAEECA04
:102CC300F97B01229002F1EEF0A3EFF07D0B7F037D
:102CD300123C978F5C122D471236AE9402EE94008D
:102CE300400EAF5C1236C312368C1237C4122D4716
:102CF3001236AE9403EE94004026740D955CFFC328
:102D03007414955CFD123C978F5C1236C312368C9B
:102D13001237C49002F1E0FEA3E0FFE4FD121D7C34
:102D23001236AE9402EE9400401990FE0CE0FEA31E
:102D3300E0FF7C137D888DE9F5ED1236CD1236A2C6
:102D43001237C4229002F1E0FEA3E0FFE4FD121D5E
:102D53007C2275818B12401D022D99020A42E49355
:102D6300A3F8E493A34003F68001F208DFF480297B
:102D7300E493A3F85407240CC8C333C4540F44206A
:102D8300C8834004F456800146F6DFE4800B010259
:102D93000408102040809036DDE47E019360BCA3DC
:102DA300FF543F30E509541FFEE493A360010ECFA7
:102DB30054C025E060A840B8E493A3FAE493A3F8D1
:102DC300E493A3C8C582C8CAC583CAF0A3C8C58291
:102DD300C8CAC583CADFE9DEE780BEC0E0C0F0C071
:102DE30083C082C0D075D018309833859965C29856
:102DF300200C087984E778826660237884E60624C9
:102E030000F582E43400F583E565F0E6FF7880E6BB
:102E1300FEEF8EF0847884A6F0C20C787E0630999B
:102E230036C299200D2F7883E6062422F582E434F6
:102E330000F583E0F599E6FF7881E6FEEF8EF084F6
:102E43007883A6F0787D067983E77885667002D269
:102E53000DD20E8002C20ED0D0D082D083D0F0D05B
:102E6300E032F583E4F075F038E559A4229002E1ED
:102E7300E0FBA3E0FAA3E0229002E8E02406FD9041
:102E830002E7E03400FCC3ED9FFFEC9400FAA907CE
:102E93007B0122E55975F038A4244CF9740035F010
:102EA300A801FC7D0122247FF582E5F03400F5833F
:102EB30022244CF582E5F0340022AB58AA57A956D8
:102EC300A855C30200AE2478F582E5F03400F583FB
:102ED300229002E774FCF0A37480F0222479F58237
:102EE300E5F03400F583229003A9EBF0A3EAF0A305
:102EF300E9F01202E8F57BE92401F9E43AFA9003D8
:102F0300ACEBF0A3EAF0A3E9F09003A9E0FBA3E0A4
:102F1300FAA3E0F990002C120301FEB405037FA786
:102F230022EED3940650037F0022E57B540FFF6407
:102F33000F6007EF903C4893FF22E57B30E40A9053
:102F430003ADE475F0011203E09003ACE0FBA3E0F2
:102F5300FAA3E0F91202E8FFD394074002800812B3
:102F630002E8903C5893FF2290030FEBF0A3EAF0A2
:102F7300A3E9F01202E8F564E92401F9E43AFA90CE
:102F83000312EBF0A3EAF0A3E9F090030FE0FBA335
:102F9300E0FAA3E0F990002C120301FEB405037FCD
:102FA300A722EED3940650037F0022E564540FFF5B
:102FB300640F6007EF903C4893FF22E56430E40A16
:102FC300900313E475F0011203E0900312E0FBA3F6
:102FD300E0FAA3E0F91202E8FFD394074002800865
:102FE3001202E8903C5893FF2293FE90036EE4751F
:102FF300F00112003885F082F58322FFFDC3E49DC2
:10300300FDE49400FC90036FE02DF090036EE03C30
:10301300F07E0090036CE0FCA3E0CAECCAF97B01EC
:10302300A3E0FCA3E0F87D010202C2FF900369E084
:10303300FBA3E0FAA3E022E0FF90036DE02FF09002
:10304300036CE03400F022FE90036FE02FF0900356
:103053006EE03EF022EFF0900369A3E0FAA3E022D2
:10306300EC3EFEE02FFF22EF14602A14603D2402A1
:10307300706C7F087E05123F61EF30E0037F012211
:103083007F047E05123E8A7B017A057904123ED1C4
:1030930043D408804C7D017F107E04123F957F103E
:1030A3007E04123F61EF30E03880F3E4FD7F0C7E55
:1030B30006123F957F107E06123F61EF20E2F57FF7
:1030C3000C7E06123F61EF4401FD7F0C7E06123F2A
:1030D300957F107E06123F61EF30E20580F37F0B90
:1030E300227F0022C0E0C0F0C083C082C0D075D070
:1030F30010E5A654036056900309E5A6F0E05403D7
:10310300F5A6A3741CF090030AE0FF14F0EF70F629
:1031130053DEEFE5D420E7FB7F0C7E08123F61EF1F
:1031230070F653DEDF75A6035375FB437510E57523
:1031330030E117E4FF12001690FE04E0F59FA3E0D0
:10314300F59E43DE0843DE04800353DC7FE5A46081
:1031530003122A61D0D0D082D083D0F0D0E0329055
:10316300035379041231C190035779081231C19086
:103173000363E0FD7F0C7E02123F957D017F007E9D
:1031830002123F9590035DE0F5DC900365E0901833
:1031930008F090035FE0F5DEA37E0A1231D49003BA
:1031A300627E0B1231D490035EE0FD7F007E11122C
:1031B3003F95900361E0F5D2E4900364F022E0FCD4
:1031C300A3E0FDA3E0FEA3E0FF7B017A02123ED160
:1031D30022E0FD7F00123F95229002E1EBF0A3EA8B
:1031E300F0A3E9F0A3EDF0F47050123BBF9000019F
:1031F3001203017880F69000021203017881F6C26F
:103203000ED20CD20DE47884F67882F67885F678BF
:1032130083F67881E6787DF6E4787EF675D8804388
:1032230087801202E8C39405500A123BBF123BA0E9
:10323300A3E0F5AA759853023FF49002E4E07012FC
:10324300123BBF1202E8C394055007123BA0A3E050
:10325300F5AA22C0E0C0F0C083C082C0D075D008F8
:10326300301705123E298053E5DD30E21275DD0487
:10327300D20A3015469003C812400A603E8035E5F5
:10328300DD30E31275DD08D20B30162F9003CA121E
:10329300400A6027801EE5DD30E00775DD01D209B5
:1032A3008019E5DD30E71475DD80D2149003C61272
:1032B300400A6007AA0EA90F120474D0D0D082D09E
:1032C30083D0F0D0E032900364E0706890035DE552
:1032D300DCF0901808E0900365F090035FE5DEF002
:1032E3007F007E0A123F61900360EFF07F007E0B48
:1032F300123F61900362EFF07F007E11123F6190F5
:10330300035EEFF0900361E5D2F07F047E02123E8C
:103313008A9003531200BF7F087E02123E8A9003F5
:10332300571200BF7F0C7E02123F61900363EFF0E0
:10333300A37401F02290FE18E0FCA3E0FDC3EF9D0F
:10334300FDEE9CFC12097A90FE10122849120756D2
:1033530090FE141228491206659002E11200BFE4A0
:10336300FFFEFDFC12281EFB1208FC50037F002207
:10337300E4FFFE7D4C7C4212281EFB1208FC600514
:1033830040037FFF22E4FBFA794C78429002E1127A
:10339300285512085FE4FBFA797F78431207561227
:1033A30009B3229002E61227E27F011226507B0125
:1033B3007A0279E97D8B7F8C1239A37B017A0279BA
:1033C300EB7D8C7F901239A3E4FF1226509002E923
:1033D300E0FEA3E0FFA3E0FCA3E0FD9002E61228D9
:1033E300249002F2C91227E37B0A12226C9002E6B0
:1033F3001227C112004EAEF07802C333CE33CED8BB
:10340300F9FFEE8FF002007974091200269003C4CD
:10341300E0FF30E304740280459003C5E0FE30E230
:103423000474078039EE30E30474088031EE30E130
:103433000474038029EF30E204740180219003C4F3
:10344300E0FF30E40474048015EF30E50474058074
:103453000DEF30E60474068005EF20E004E412006B
:103463002675D4FF75DDFF22462025752025750DB1
:103473000A00E056455253494F4E00000008414CA4
:1034830069746869756D434F3200E007000F0000EF
:1034930000C0038877020300000007000F0000004C
:1034A300C0038877020300000107000F000000C07B
:1034B300038877000300000007000F000000C0032B
:1034C30088770003000001EFC3940B5016E5A15F5A
:1034D30060087886E65F60478041E5805F60028030
:1034E3003A803CEFC394C9501B74F62FFF55AF606D
:1034F3000A7887E65F600280228024E5905F60029D
:103503008019801B74382FFF55D1600A7888E65FD5
:10351300600280078009E5B05F600474018001E404
:10352300120026229002E5E0F5518B528A5389540A
:10353300AF058F55ED2551FFE433FED3EF9420EE15
:103543006480948040037F0A22E551D39400402C89
:10355300E55575F004A42400FFE5F03407FE123F9F
:1035630061AB52AA53A954EF1200261551055574A5
:10357300012554F554E43553F55380CD7F00229053
:1035830002EDE0F5518B528A538954AF058F55ED07
:103593002551FFE433FED3EF9420EE648094804002
:1035A300037F0A22E551D39400402CE55575F004BE
:1035B300A42400FFE5F03407FEAB52AA53A954122A
:1035C30002E8FD123F951551055574012554F55434
:1035D300E43553F55380CD7F00229002E1EFF0A351
:1035E300EDF0123F3C9002E1E0F572A3E0F5735376
:1035F30074FE5374FD4374045374F75375FD53758C
:10360300FB5375F75375EF5375DF437501E4F551BC
:10361300E551C39572501675F038E551A4247FF532
:1036230082E5F03400F583E4F0055180E3E4F576B8
:10363300F57122EFC3940B5016ED60077886E64FC1
:10364300F68006EFF4788656F67886E6F58022EF64
:10365300C394C9501A74F62FFFED60077887E64FBD
:10366300F68006EFF4788756F67887E6F5902274AD
:10367300382FFFED60077888E64FF68006EFF47881
:103683008856F67888E6F5B022A804A905AA06AB01
:103693000790FE0CE0FEA3E0FFE4FCFD1201A4E4AE
:1036A300FB7A08F9F81200E5E4FD229002F1E0FE4E
:1036B300A3E02431F582E43EF583E0FEA3E0C322D8
:1036C3007E007C007D648DE98FED8CEA8EEE120125
:1036D300EDAFE9AEEAADEBACEC22430049012222A7
:1036E3004103640042035B00004103B5004103B69C
:1036F300004103B791C113C1104A0390039503CB53
:1037030003E603F303F7C10AC10BC109C114420362
:10371300C60000C10EC1154203C80000C116420312
:10372300CA0000C117018BFF009002E11227E27B60
:10373300017A0279E41233A69002E4E0FEA3E0FFEB
:10374300D39455EE940550061227BEE48023C3EFAD
:103753009405EE940A40071227BE74C88013EF2421
:10376300ABFFEE34FAFE7C007D061200CB1227BEBF
:10377300EF12002622E4F55C75F004E55CA4242C2A
:10378300F582E5F034FEF583120464EFF460070577
:103793005CE55CB40AE2E55C701090FE20E0FCA3FB
:1037A300E0FDA3E0FEA3E0FF801375F004E55CA455
:1037B3002428F582E5F034FEF5831204641204260E
:1037C300229002F3EDF0E4FCFD9002F51200BF90AD
:1037D30002F97401F07F0212256B7B007A00795E97
:1037E3007F0212286BE55E60F19002F3E0FF7B003D
:1037F3007A00795D1229187F02123B6E7F03123E15
:10380300427F01120016123FEBAF5D2285725D20ED
:1038130010037F0022E55DD394024003755D02E44B
:10382300F55CE55CC3955D502AA2AF9200C2AFE59B
:103833005C123A97E05441701275F038E55C123A25
:103843009A7440F0A20092AFAF5C22A20092AF053F
:103853005C80CF7FFF229002E1EBF0A3EAF0A3E9C3
:10386300F0A3EDF0787DE6C39D50037F0922E4F5D4
:10387300519002E4E0FFE551C39F501C9002E1E048
:10388300FBA3E0FAA3E0F9855182758300120301DB
:10389300FF123A1D055180D97F00227B007A0079FF
:1038A30051123F73AE53AF54E5522FFFE5513EFE25
:1038B30090FE06123FFC90FE04123FFC90FE0CE0CB
:1038C300A3123FFC90FE0EE0A3E0FDEF6DFF123D5F
:1038D300A47F01123FC375B91075A904D2AF22901A
:1038E3000381E0FBA3E0FAA3E0F9857C8275830002
:1038F300120301FF90037EE0FBA3E475F0011200C5
:1039030038A9F0FA22900381E0FBA3E0FAA3E0F9DF
:1039130022C9F0A3EAF0A3E9F022857C8275830033
:10392300020301300C037F0422A2AF9200C2AF78DE
:1039330082E62400F582E43400F583E012002606D3
:10394300E6FF7880E6FEEF8EF0847882A6F0798237
:10395300E77884667002D20C787E16A20092AF7F5D
:103963000022E4900385F09003877403F0A374E8C6
:10397300F0E4A3F0A3F0900386F090FC0893FF74A7
:10398300019390038BCFF0A3EFF090FC05E49390A9
:10399300038DF090FC06E49390038EF0E4A3F022F1
:1039A3009002EDEBF0A3EAF0A3E9F0122011EF602F
:1039B300037F0B227F047E0A123F2890035BE0FC07
:1039C300A3E0FDC3EF9DFFEE9CF99002EDE0FBA3A6
:1039D300E0FAA3E0C98FF01200797F00227810EE9D
:1039E300F9547F7005CF4403780818CFD333CF330E
:1039F30050F8FEE890FE542582F582E0FFE930E7B7
:103A030005EFC3940FFFEE30E7031F1F1F30E601DE
:103A13001FEFC3942950027F2922787DE670037F2C
:103A23000922A2AF9200C2AF7885E62422F582E490
:103A33003400F583EFF006E6FF7881E6FEEF8EF0C3
:103A4300847885A6F0200E02D299C20D787D16A245
:103A53000092AF7F0022EE75F038A4247FF582E553
:103A6300F03400F5832275F038A4244CF582E5F098
:103A730034002275F038EDA42479F582E5F03400A2
:103A8300F5832275F038A42478F582E5F03400F547
:103A93008322E56A75F038A4247FF582E5F03400CB
:103AA300F583227D01900315E0FBA3E0FAA3E02256
:103AB300F075F038E56AA422AB70AA6FA96EA86D01
:103AC300C30200AEF99000010203F6E4FF124017AF
:103AD300FE30E4037480FFED30E41BEEC41354079F
:103AE300903FA5934FFFEE30E019124017540EC3D9
:103AF30013903FA5800A124017C4135407903FAD9B
:103B0300934FFF227FE87E03E4FDFC9002E9E0F897
:103B1300A3E0F9A3E0FAA3E0FB229002E1E0FCA317
:103B2300E0FDA3E0FEA3E022FFEE9400FEED94008F
:103B3300FDEC9400FC0200BF752362E4F524F52537
:103B4300F526F527F528F529752A24752B20752CDC
:103B53000B752D80754F0CF99002E4C9F0A3F0A307
:103B6300E9F07B007A00792302163CEF24FE600B18
:103B730004702453DCFD75DD02801FE4FD7F0C7EA1
:103B830006123F957F107E06123F61EF20E2F55348
:103B9300DCFE75DD0180037F0B227F00221202E829
:103BA300FF25E02490F582E43403F583E0F5BAEFD2
:103BB30025E02490F582E43403F583229002E1E0CA
:103BC300FBA3E0FAA3E0F922EFC3940B5009788634
:103BD300E66FF6E6F58022EFC394C9EF500A24F6A8
:103BE300788766F6E6F590222438788866F6E6F557
:103BF300B0228FB49002F5E06F90237D939002F58D
:103C0300F022242DF582E43EF583E0229002F3E0D6
:103C1300FEA3E022856082855F83E022EB242CF5FE
:103C230082E43AF583E022242CF582E43CF583E038
:103C330022242CF582E43EF583E0222401FFE433C1
:103C4300FEE02FFF22F6D5A5D0D2D4D1303135B343
:103C5300FFFFFFFFFFC5C6C74032B0B1B203040484
:103C630006000000000000040000000000EFB40A9A
:103C730007740D123C7B740A309811A899B8130C81
:103C8300C2983098FDA899C298B811F63099FDC230
:103C930099F599229002F3EFF0A3EDF01240118F02
:103CA3005D9002F3E0FFA3E0C39F04FEE55D8EF0A9
:103CB3008485F05DEF255DF55DFF2275DD04EF6022
:103CC300179003C8E07002A3E0600DD21543DC082F
:103CD30043AD047F01023FC3C21553DCF753ADFB71
:103CE3002275DD08EF60179003CAE07002A3E0605D
:103CF3000DD21643DC1043AD087F01023FC3C21649
:103D030053DCEF53ADF722E94A7002FF2212032E70
:103D130090FC82E0F8A3E0F9A3E0FAA3E0FBC3126E
:103D230000AE70047F0180027F002253DCF753ADA5
:103D3300FB75DD04EF4E60099003C8EEF0A3EFF0CE
:103D430022E49003C8F0A3F02253DCEF53ADF775E0
:103D5300DD08EF4E60099003CAEEF0A3EFF022E412
:103D63009003CAF0A3F0227F011200167D647F0A3C
:103D73001235DD7B017A0079497DFF1231DC12387F
:103D83009E023FEB9002E11227E27F05122650903C
:103D930002E11227C17D8C7F8F1239A3E4FF022633
:103DA30050CDEFCDCCEECCED4C700890FE0EE0FC88
:103DB300A3E0FDEC901803F0901802EDF02253AD50
:103DC3007F75DD80EF4E60099003C6EEF0A3EFF040
:103DD30022E49003C6F0A3F0229002F5E0FCA3E0F6
:103DE300FDA3E0FEA3E0FF229002F9E0F8E4F0E88F
:103DF300A3F022E57520E1037F00227F0C7E0912E8
:103E03003F28EF641160037F01227F0022E05645C3
:103E13005253494F4E010400004C454F333130306B
:103E23004941504900E075DD029003C3E070064349
:103E3300D90104F02253D9FE9003C37402F02290F7
:103E430002F4EFF07F0212001643D5019003C4E59C
:103E5300D4F0A3E5DDF022787DE6FF7881E6C39F09
:103E63001200261202E87006A20E3312002622EF79
:103E730060119003C6E07002A3E0600775DD804324
:103E8300AD802253AD7F22A2AFC2AF8FF88EF975FA
:103E9300FA000000AFFCAEFDADFEACFF92AF2220F6
:103EA300006040A080E000000006040A080E000045
:103EB3000000406080A0C0E5FB30E10375FB029089
:103EC30003C2E004F070069003C1E004F022A2AF45
:103ED300C2AF89F88AF98FC48EC58DC68CC775FAAF
:103EE3000192AF22C0D0C0A8C2AF123EF5D0A8D075
:103EF300D022C0E843E84002FE005375F75375DF54
:103F030075A4FFE4F5A543A51043A54043A80422E7
:103F13007B017A047904123ED17F0C7E04123F6147
:103F2300EF20E1F522A2AFC2AF8FF88EF975FA0048
:103F33000000AFFCAEFD92AF225375EF5375FB75D6
:103F4300A6FFE4F5A775A70143A80422A2AFC2AF59
:103F53008FF88EF98DC48CC575FA0192AF22A2AF8A
:103F6300C2AF8FF88EF975FA000000AFFC92AF2252
:103F730090FC82E0FCA3E0FDA3E0FEA3E0FF0204CB
:103F8300261200269003A2E0FBA3E0FAA3E0F902C5
:103F930002E8A2AFC2AF8FF88EF98DC475FA019211
:103FA300AF2202010804201040400003070F1F3F07
:103FB3007F7F9002F5E0FCA3E0FDA3E0FEA3E022F7
:103FC300EF600443A8012253A8FE22F6D5A5D0D260
:103FD300D4D1303135B39002E51200060235279073
:103FE30002ED120006023582E5D630E0FB43D5022E
:103FF30022C299C29843A81022E02FFFE43EFE227A
:1040030000010102030404E0FEA3E0FF4E22901826
:0F40130002E0FF229000010203017F03023E4200
:0241FE000201BC
:02FE00002100DF
:10FE030000FFFFFFFFFFFFFFFFFFFFFFFFFFFFFFFE
:10FE1300FF01040000000000084C69746869756DF7
:09FE2300434F3200FFFFFFFFFF17
:00000001FF
